{
  "contractName": "CampusRental",
  "abi": [
    {
      "inputs": [
        {
          "internalType": "uint256",
          "name": "",
          "type": "uint256"
        }
      ],
      "name": "itemList",
      "outputs": [
        {
          "internalType": "address",
          "name": "owner",
          "type": "address"
        },
        {
          "internalType": "uint256",
          "name": "dailyRent",
          "type": "uint256"
        },
        {
          "internalType": "uint256",
          "name": "deposit",
          "type": "uint256"
        },
        {
          "internalType": "bool",
          "name": "available",
          "type": "bool"
        }
      ],
      "stateMutability": "view",
      "type": "function",
      "constant": true
    },
    {
      "inputs": [
        {
          "internalType": "uint256",
          "name": "",
          "type": "uint256"
        }
      ],
      "name": "orderList",
      "outputs": [
        {
          "internalType": "address",
          "name": "renter",
          "type": "address"
        },
        {
          "internalType": "uint256",
          "name": "itemId",
          "type": "uint256"
        },
        {
          "internalType": "uint256",
          "name": "rentDays",
          "type": "uint256"
        },
        {
          "internalType": "bool",
          "name": "finished",
          "type": "bool"
        }
      ],
      "stateMutability": "view",
      "type": "function",
      "constant": true
    },
    {
      "inputs": [
        {
          "internalType": "address",
          "name": "",
          "type": "address"
        },
        {
          "internalType": "uint256",
          "name": "",
          "type": "uint256"
        }
      ],
      "name": "userOwnedItems",
      "outputs": [
        {
          "internalType": "uint256",
          "name": "",
          "type": "uint256"
        }
      ],
      "stateMutability": "view",
      "type": "function",
      "constant": true
    },
    {
      "inputs": [
        {
          "internalType": "uint256",
          "name": "dailyRent",
          "type": "uint256"
        },
        {
          "internalType": "uint256",
          "name": "deposit",
          "type": "uint256"
        }
      ],
      "name": "publishItem",
      "outputs": [
        {
          "internalType": "uint256",
          "name": "",
          "type": "uint256"
        }
      ],
      "stateMutability": "nonpayable",
      "type": "function"
    },
    {
      "inputs": [
        {
          "internalType": "address",
          "name": "user",
          "type": "address"
        }
      ],
      "name": "getUserAllItemIds",
      "outputs": [
        {
          "internalType": "uint256[]",
          "name": "",
          "type": "uint256[]"
        }
      ],
      "stateMutability": "view",
      "type": "function",
      "constant": true
    },
    {
      "inputs": [
        {
          "internalType": "uint256",
          "name": "itemId",
          "type": "uint256"
        },
        {
          "internalType": "uint256",
          "name": "rentDays",
          "type": "uint256"
        }
      ],
      "name": "createRentOrder",
      "outputs": [],
      "stateMutability": "payable",
      "type": "function",
      "payable": true
    },
    {
      "inputs": [
        {
          "internalType": "uint256",
          "name": "orderId",
          "type": "uint256"
        }
      ],
      "name": "returnGoods",
      "outputs": [],
      "stateMutability": "nonpayable",
      "type": "function"
    },
    {
      "inputs": [
        {
          "internalType": "uint256",
          "name": "itemId",
          "type": "uint256"
        },
        {
          "internalType": "uint256",
          "name": "newDaily",
          "type": "uint256"
        },
        {
          "internalType": "uint256",
          "name": "newDeposit",
          "type": "uint256"
        }
      ],
      "name": "updateItemPrice",
      "outputs": [],
      "stateMutability": "nonpayable",
      "type": "function"
    },
    {
      "inputs": [],
      "name": "getItemCount",
      "outputs": [
        {
          "internalType": "uint256",
          "name": "",
          "type": "uint256"
        }
      ],
      "stateMutability": "view",
      "type": "function",
      "constant": true
    },
    {
      "inputs": [],
      "name": "getOrderCount",
      "outputs": [
        {
          "internalType": "uint256",
          "name": "",
          "type": "uint256"
        }
      ],
      "stateMutability": "view",
      "type": "function",
      "constant": true
    }
  ],
  "bytecode": "0x608060405234801561001057600080fd5b506113a7806100206000396000f3fe6080604052600436106100915760003560e01c806381d77ea21161005957806381d77ea214610186578063874928c7146101c35780638d0a5fbb14610200578063c0c7a9d11461022b578063e02f8c2d1461026857610091565b80633a6c44fd146100965780633d4d3600146100bf57806376f75e7f146100ff5780637749cf231461013f5780637acea57f1461016a575b600080fd5b3480156100a257600080fd5b506100bd60048036038101906100b89190610b8c565b610291565b005b3480156100cb57600080fd5b506100e660048036038101906100e19190610bdf565b6103b8565b6040516100f69493929190610c77565b60405180910390f35b34801561010b57600080fd5b5061012660048036038101906101219190610bdf565b610425565b6040516101369493929190610c77565b60405180910390f35b34801561014b57600080fd5b50610154610492565b6040516101619190610cbc565b60405180910390f35b610184600480360381019061017f9190610cd7565b61049e565b005b34801561019257600080fd5b506101ad60048036038101906101a89190610cd7565b6106f0565b6040516101ba9190610cbc565b60405180910390f35b3480156101cf57600080fd5b506101ea60048036038101906101e59190610d43565b610859565b6040516101f79190610e2e565b60405180910390f35b34801561020c57600080fd5b506102156108f0565b6040516102229190610cbc565b60405180910390f35b34801561023757600080fd5b50610252600480360381019061024d9190610e50565b6108fd565b60405161025f9190610cbc565b60405180910390f35b34801561027457600080fd5b5061028f600480360381019061028a9190610bdf565b61092e565b005b60008084815481106102a6576102a5610e90565b5b906000526020600020906004020190508060000160009054906101000a900473ffffffffffffffffffffffffffffffffffffffff1673ffffffffffffffffffffffffffffffffffffffff163373ffffffffffffffffffffffffffffffffffffffff1614610348576040517f08c379a000000000000000000000000000000000000000000000000000000000815260040161033f90610f42565b60405180910390fd5b600115158160030160009054906101000a900460ff161515146103a0576040517f08c379a000000000000000000000000000000000000000000000000000000000815260040161039790610fd4565b60405180910390fd5b82816001018190555081816002018190555050505050565b600081815481106103c857600080fd5b90600052602060002090600402016000915090508060000160009054906101000a900473ffffffffffffffffffffffffffffffffffffffff16908060010154908060020154908060030160009054906101000a900460ff16905084565b6001818154811061043557600080fd5b90600052602060002090600402016000915090508060000160009054906101000a900473ffffffffffffffffffffffffffffffffffffffff16908060010154908060020154908060030160009054906101000a900460ff16905084565b60008080549050905090565b60008083815481106104b3576104b2610e90565b5b906000526020600020906004020190508060000160009054906101000a900473ffffffffffffffffffffffffffffffffffffffff1673ffffffffffffffffffffffffffffffffffffffff163373ffffffffffffffffffffffffffffffffffffffff1603610555576040517f08c379a000000000000000000000000000000000000000000000000000000000815260040161054c90611066565b60405180910390fd5b8060030160009054906101000a900460ff166105a6576040517f08c379a000000000000000000000000000000000000000000000000000000000815260040161059d906110d2565b60405180910390fd5b806002015434146105ec576040517f08c379a00000000000000000000000000000000000000000000000000000000081526004016105e39061113e565b60405180910390fd5b600160405180608001604052803373ffffffffffffffffffffffffffffffffffffffff16815260200185815260200184815260200160001515815250908060018154018082558091505060019003906000526020600020906004020160009091909190915060008201518160000160006101000a81548173ffffffffffffffffffffffffffffffffffffffff021916908373ffffffffffffffffffffffffffffffffffffffff160217905550602082015181600101556040820151816002015560608201518160030160006101000a81548160ff021916908315150217905550505060008160030160006101000a81548160ff021916908315150217905550505050565b60008060405180608001604052803373ffffffffffffffffffffffffffffffffffffffff16815260200185815260200184815260200160011515815250908060018154018082558091505060019003906000526020600020906004020160009091909190915060008201518160000160006101000a81548173ffffffffffffffffffffffffffffffffffffffff021916908373ffffffffffffffffffffffffffffffffffffffff160217905550602082015181600101556040820151816002015560608201518160030160006101000a81548160ff0219169083151502179055505050600060016000805490506107e7919061118d565b9050600260003373ffffffffffffffffffffffffffffffffffffffff1673ffffffffffffffffffffffffffffffffffffffff1681526020019081526020016000208190806001815401808255809150506001900390600052602060002001600090919091909150558091505092915050565b6060600260008373ffffffffffffffffffffffffffffffffffffffff1673ffffffffffffffffffffffffffffffffffffffff1681526020019081526020016000208054806020026020016040519081016040528092919081815260200182805480156108e457602002820191906000526020600020905b8154815260200190600101908083116108d0575b50505050509050919050565b6000600180549050905090565b6002602052816000526040600020818154811061091957600080fd5b90600052602060002001600091509150505481565b60006001828154811061094457610943610e90565b5b906000526020600020906004020190508060030160009054906101000a900460ff16156109a6576040517f08c379a000000000000000000000000000000000000000000000000000000000815260040161099d9061120d565b60405180910390fd5b3373ffffffffffffffffffffffffffffffffffffffff168160000160009054906101000a900473ffffffffffffffffffffffffffffffffffffffff1673ffffffffffffffffffffffffffffffffffffffff1614610a38576040517f08c379a0000000000000000000000000000000000000000000000000000000008152600401610a2f90611279565b60405180910390fd5b600080826001015481548110610a5157610a50610e90565b5b9060005260206000209060040201905060003373ffffffffffffffffffffffffffffffffffffffff168260020154604051610a8b906112ca565b60006040518083038185875af1925050503d8060008114610ac8576040519150601f19603f3d011682016040523d82523d6000602084013e610acd565b606091505b5050905080610b11576040517f08c379a0000000000000000000000000000000000000000000000000000000008152600401610b0890611351565b60405180910390fd5b60018260030160006101000a81548160ff02191690831515021790555060018360030160006101000a81548160ff02191690831515021790555050505050565b600080fd5b6000819050919050565b610b6981610b56565b8114610b7457600080fd5b50565b600081359050610b8681610b60565b92915050565b600080600060608486031215610ba557610ba4610b51565b5b6000610bb386828701610b77565b9350506020610bc486828701610b77565b9250506040610bd586828701610b77565b9150509250925092565b600060208284031215610bf557610bf4610b51565b5b6000610c0384828501610b77565b91505092915050565b600073ffffffffffffffffffffffffffffffffffffffff82169050919050565b6000610c3782610c0c565b9050919050565b610c4781610c2c565b82525050565b610c5681610b56565b82525050565b60008115159050919050565b610c7181610c5c565b82525050565b6000608082019050610c8c6000830187610c3e565b610c996020830186610c4d565b610ca66040830185610c4d565b610cb36060830184610c68565b95945050505050565b6000602082019050610cd16000830184610c4d565b92915050565b60008060408385031215610cee57610ced610b51565b5b6000610cfc85828601610b77565b9250506020610d0d85828601610b77565b9150509250929050565b610d2081610c2c565b8114610d2b57600080fd5b50565b600081359050610d3d81610d17565b92915050565b600060208284031215610d5957610d58610b51565b5b6000610d6784828501610d2e565b91505092915050565b600081519050919050565b600082825260208201905092915050565b6000819050602082019050919050565b610da581610b56565b82525050565b6000610db78383610d9c565b60208301905092915050565b6000602082019050919050565b6000610ddb82610d70565b610de58185610d7b565b9350610df083610d8c565b8060005b83811015610e21578151610e088882610dab565b9750610e1383610dc3565b925050600181019050610df4565b5085935050505092915050565b60006020820190508181036000830152610e488184610dd0565b905092915050565b60008060408385031215610e6757610e66610b51565b5b6000610e7585828601610d2e565b9250506020610e8685828601610b77565b9150509250929050565b7f4e487b7100000000000000000000000000000000000000000000000000000000600052603260045260246000fd5b600082825260208201905092915050565b7fe4bb85e59586e59381e68980e69c89e88085e58fafe4bfaee694b9e4bbb7e6a060008201527fbc00000000000000000000000000000000000000000000000000000000000000602082015250565b6000610f2c602183610ebf565b9150610f3782610ed0565b604082019050919050565b60006020820190508181036000830152610f5b81610f1f565b9050919050565b7fe7a79fe8b581e4b8ade59586e59381e4b88de58fafe4bfaee694b9e4bbb7e6a060008201527fbc00000000000000000000000000000000000000000000000000000000000000602082015250565b6000610fbe602183610ebf565b9150610fc982610f62565b604082019050919050565b60006020820190508181036000830152610fed81610fb1565b9050919050565b7fe4b88de883bde7a79fe8b581e887aae5b7b1e58f91e5b883e79a84e59586e59360008201527f8100000000000000000000000000000000000000000000000000000000000000602082015250565b6000611050602183610ebf565b915061105b82610ff4565b604082019050919050565b6000602082019050818103600083015261107f81611043565b9050919050565b7fe789a9e59381e5b7b2e8a2abe7a79fe8b5810000000000000000000000000000600082015250565b60006110bc601283610ebf565b91506110c782611086565b602082019050919050565b600060208201905081810360008301526110eb816110af565b9050919050565b7fe68abce98791e98791e9a29de4b88de7aca60000000000000000000000000000600082015250565b6000611128601283610ebf565b9150611133826110f2565b602082019050919050565b600060208201905081810360008301526111578161111b565b9050919050565b7f4e487b7100000000000000000000000000000000000000000000000000000000600052601160045260246000fd5b600061119882610b56565b91506111a383610b56565b92508282039050818111156111bb576111ba61115e565b5b92915050565b7fe8aea2e58d95e5b7b2e5ae8ce688900000000000000000000000000000000000600082015250565b60006111f7600f83610ebf565b9150611202826111c1565b602082019050919050565b60006020820190508181036000830152611226816111ea565b9050919050565b7fe4bb85e689bfe7a79fe4babae58fafe5bd92e8bf980000000000000000000000600082015250565b6000611263601583610ebf565b915061126e8261122d565b602082019050919050565b6000602082019050818103600083015261129281611256565b9050919050565b600081905092915050565b50565b60006112b4600083611299565b91506112bf826112a4565b600082019050919050565b60006112d5826112a7565b9150819050919050565b7fe68abce98791e98080e8bf98e5a4b1e8b4a5efbc8ce59088e7baa6e4bd99e9a260008201527f9de4b88de8b6b300000000000000000000000000000000000000000000000000602082015250565b600061133b602783610ebf565b9150611346826112df565b604082019050919050565b6000602082019050818103600083015261136a8161132e565b905091905056fea2646970667358221220f3d6506e470794b5df87bc70e7c2561fce792e18ea764f6ad7191ee904d03e8e64736f6c63430008110033",
  "immutableReferences": {},
  "source": "// SPDX-License-Identifier: MIT\r\npragma solidity ^0.8.17;\r\n\r\ncontract CampusRental {\r\n    struct Item {\r\n        address owner;\r\n        uint256 dailyRent;\r\n        uint256 deposit;\r\n        bool available;\r\n    }\r\n\r\n    struct Order {\r\n        address renter;\r\n        uint256 itemId;\r\n        uint256 rentDays;\r\n        bool finished;\r\n    }\r\n\r\n    Item[] public itemList;\r\n    Order[] public orderList;\r\n\r\n    // 新增：地址 => 自己发布的商品ID数组\r\n    mapping(address => uint256[]) public userOwnedItems;\r\n\r\n    // 发布租赁物品（末尾新增记录商品ID到用户映射）\r\n    function publishItem(uint256 dailyRent, uint256 deposit) external returns(uint256) {\r\n        itemList.push(Item({\r\n            owner: msg.sender,\r\n            dailyRent: dailyRent,\r\n            deposit: deposit,\r\n            available: true\r\n        }));\r\n        uint256 newId = itemList.length - 1;\r\n        userOwnedItems[msg.sender].push(newId);\r\n        return newId;\r\n    }\r\n\r\n    // 新增：读取某用户全部自有商品ID\r\n    function getUserAllItemIds(address user) external view returns(uint256[] memory) {\r\n        return userOwnedItems[user];\r\n    }\r\n\r\n    // 创建租赁订单：仅收取押金，租金前端仅展示，不链上转账\r\n    function createRentOrder(uint256 itemId, uint256 rentDays) external payable {\r\n        Item storage item = itemList[itemId];\r\n        require(msg.sender != item.owner, unicode\"不能租赁自己发布的商品\");\r\n        require(item.available, unicode\"物品已被租赁\");\r\n        // 仅支付押金\r\n        require(msg.value == item.deposit, unicode\"押金金额不符\");\r\n        orderList.push(Order({\r\n            renter: msg.sender,\r\n            itemId: itemId,\r\n            rentDays: rentDays,\r\n            finished: false\r\n        }));\r\n        item.available = false;\r\n    }\r\n\r\n    // 归还物品：只全额退还押金，不计算、不抵扣租金\r\n    function returnGoods(uint256 orderId) external {\r\n        Order storage order = orderList[orderId];\r\n        require(!order.finished, unicode\"订单已完成\");\r\n        require(order.renter == msg.sender, unicode\"仅承租人可归还\");\r\n\r\n        Item storage item = itemList[order.itemId];\r\n        // 直接全额退还押金\r\n        (bool success, ) = payable(msg.sender).call{value: item.deposit}(\"\");\r\n        require(success, unicode\"押金退还失败，合约余额不足\");\r\n\r\n        item.available = true;\r\n        order.finished = true;\r\n    }\r\n\r\n    // 修改商品日租金、押金\r\n    function updateItemPrice(uint256 itemId, uint256 newDaily, uint256 newDeposit) external {\r\n        Item storage item = itemList[itemId];\r\n        require(msg.sender == item.owner, unicode\"仅商品所有者可修改价格\");\r\n        require(item.available == true, unicode\"租赁中商品不可修改价格\");\r\n        item.dailyRent = newDaily;\r\n        item.deposit = newDeposit;\r\n    }\r\n\r\n    // 获取物品总数\r\n    function getItemCount() external view returns(uint256) {\r\n        return itemList.length;\r\n    }\r\n\r\n    // 获取订单总数\r\n    function getOrderCount() external view returns(uint256) {\r\n        return orderList.length;\r\n    }\r\n}",
  "sourcePath": "C:\\Users\\袁家愉\\Desktop\\campus\\contracts\\CampusRental.sol",
  "compiler": {
    "name": "solc",
    "version": "0.8.17+commit.8df45f5f.Emscripten.clang"
  },
  "schemaVersion": "3.4.16",
  "updatedAt": "2026-06-22T00:22:15.028Z",
  "networkType": "ethereum",
  "devdoc": {
    "kind": "dev",
    "methods": {},
    "version": 1
  },
  "userdoc": {
    "kind": "user",
    "methods": {},
    "version": 1
  }
}